{
  "address": "0xA44fBC1c37e87A095C62069cC3436a7f41eB26d2",
  "abi": [
    {
      "type": "constructor",
      "stateMutability": "undefined",
      "payable": false,
      "inputs": [
        {
          "type": "address",
          "name": "_token"
        },
        {
          "type": "address",
          "name": "_minterBurner"
        },
        {
          "type": "address",
          "name": "_lzEndpoint"
        },
        {
          "type": "address",
          "name": "_owner"
        }
      ]
    },
    {
      "type": "error",
      "name": "AddressEmptyCode",
      "inputs": [
        {
          "type": "address",
          "name": "target"
        }
      ]
    },
    {
      "type": "error",
      "name": "AddressInsufficientBalance",
      "inputs": [
        {
          "type": "address",
          "name": "account"
        }
      ]
    },
    {
      "type": "error",
      "name": "FailedInnerCall",
      "inputs": []
    },
    {
      "type": "error",
      "name": "InvalidDelegate",
      "inputs": []
    },
    {
      "type": "error",
      "name": "InvalidEndpointCall",
      "inputs": []
    },
    {
      "type": "error",
      "name": "InvalidLocalDecimals",
      "inputs": []
    },
    {
      "type": "error",
      "name": "InvalidOptions",
      "inputs": [
        {
          "type": "bytes",
          "name": "options"
        }
      ]
    },
    {
      "type": "error",
      "name": "LzTokenUnavailable",
      "inputs": []
    },
    {
      "type": "error",
      "name": "NoPeer",
      "inputs": [
        {
          "type": "uint32",
          "name": "eid"
        }
      ]
    },
    {
      "type": "error",
      "name": "NotEnoughNative",
      "inputs": [
        {
          "type": "uint256",
          "name": "msgValue"
        }
      ]
    },
    {
      "type": "error",
      "name": "OnlyEndpoint",
      "inputs": [
        {
          "type": "address",
          "name": "addr"
        }
      ]
    },
    {
      "type": "error",
      "name": "OnlyPeer",
      "inputs": [
        {
          "type": "uint32",
          "name": "eid"
        },
        {
          "type": "bytes32",
          "name": "sender"
        }
      ]
    },
    {
      "type": "error",
      "name": "OnlySelf",
      "inputs": []
    },
    {
      "type": "error",
      "name": "OwnableInvalidOwner",
      "inputs": [
        {
          "type": "address",
          "name": "owner"
        }
      ]
    },
    {
      "type": "error",
      "name": "OwnableUnauthorizedAccount",
      "inputs": [
        {
          "type": "address",
          "name": "account"
        }
      ]
    },
    {
      "type": "error",
      "name": "SafeERC20FailedOperation",
      "inputs": [
        {
          "type": "address",
          "name": "token"
        }
      ]
    },
    {
      "type": "error",
      "name": "SimulationResult",
      "inputs": [
        {
          "type": "bytes",
          "name": "result"
        }
      ]
    },
    {
      "type": "error",
      "name": "SlippageExceeded",
      "inputs": [
        {
          "type": "uint256",
          "name": "amountLD"
        },
        {
          "type": "uint256",
          "name": "minAmountLD"
        }
      ]
    },
    {
      "type": "event",
      "anonymous": false,
      "name": "EnforcedOptionSet",
      "inputs": [
        {
          "type": "tuple[]",
          "name": "_enforcedOptions",
          "components": [
            {
              "type": "uint32",
              "name": "eid"
            },
            {
              "type": "uint16",
              "name": "msgType"
            },
            {
              "type": "bytes",
              "name": "options"
            }
          ]
        }
      ]
    },
    {
      "type": "event",
      "anonymous": false,
      "name": "MsgInspectorSet",
      "inputs": [
        {
          "type": "address",
          "name": "inspector",
          "indexed": false
        }
      ]
    },
    {
      "type": "event",
      "anonymous": false,
      "name": "OFTReceived",
      "inputs": [
        {
          "type": "bytes32",
          "name": "guid",
          "indexed": true
        },
        {
          "type": "uint32",
          "name": "srcEid",
          "indexed": false
        },
        {
          "type": "address",
          "name": "toAddress",
          "indexed": true
        },
        {
          "type": "uint256",
          "name": "amountReceivedLD",
          "indexed": false
        }
      ]
    },
    {
      "type": "event",
      "anonymous": false,
      "name": "OFTSent",
      "inputs": [
        {
          "type": "bytes32",
          "name": "guid",
          "indexed": true
        },
        {
          "type": "uint32",
          "name": "dstEid",
          "indexed": false
        },
        {
          "type": "address",
          "name": "fromAddress",
          "indexed": true
        },
        {
          "type": "uint256",
          "name": "amountSentLD",
          "indexed": false
        },
        {
          "type": "uint256",
          "name": "amountReceivedLD",
          "indexed": false
        }
      ]
    },
    {
      "type": "event",
      "anonymous": false,
      "name": "OwnershipTransferred",
      "inputs": [
        {
          "type": "address",
          "name": "previousOwner",
          "indexed": true
        },
        {
          "type": "address",
          "name": "newOwner",
          "indexed": true
        }
      ]
    },
    {
      "type": "event",
      "anonymous": false,
      "name": "PeerSet",
      "inputs": [
        {
          "type": "uint32",
          "name": "eid",
          "indexed": false
        },
        {
          "type": "bytes32",
          "name": "peer",
          "indexed": false
        }
      ]
    },
    {
      "type": "event",
      "anonymous": false,
      "name": "PreCrimeSet",
      "inputs": [
        {
          "type": "address",
          "name": "preCrimeAddress",
          "indexed": false
        }
      ]
    },
    {
      "type": "function",
      "name": "SEND",
      "constant": true,
      "stateMutability": "view",
      "payable": false,
      "inputs": [],
      "outputs": [
        {
          "type": "uint16",
          "name": ""
        }
      ]
    },
    {
      "type": "function",
      "name": "SEND_AND_CALL",
      "constant": true,
      "stateMutability": "view",
      "payable": false,
      "inputs": [],
      "outputs": [
        {
          "type": "uint16",
          "name": ""
        }
      ]
    },
    {
      "type": "function",
      "name": "allowInitializePath",
      "constant": true,
      "stateMutability": "view",
      "payable": false,
      "inputs": [
        {
          "type": "tuple",
          "name": "origin",
          "components": [
            {
              "type": "uint32",
              "name": "srcEid"
            },
            {
              "type": "bytes32",
              "name": "sender"
            },
            {
              "type": "uint64",
              "name": "nonce"
            }
          ]
        }
      ],
      "outputs": [
        {
          "type": "bool",
          "name": ""
        }
      ]
    },
    {
      "type": "function",
      "name": "approvalRequired",
      "constant": true,
      "stateMutability": "pure",
      "payable": false,
      "inputs": [],
      "outputs": [
        {
          "type": "bool",
          "name": ""
        }
      ]
    },
    {
      "type": "function",
      "name": "combineOptions",
      "constant": true,
      "stateMutability": "view",
      "payable": false,
      "inputs": [
        {
          "type": "uint32",
          "name": "_eid"
        },
        {
          "type": "uint16",
          "name": "_msgType"
        },
        {
          "type": "bytes",
          "name": "_extraOptions"
        }
      ],
      "outputs": [
        {
          "type": "bytes",
          "name": ""
        }
      ]
    },
    {
      "type": "function",
      "name": "decimalConversionRate",
      "constant": true,
      "stateMutability": "view",
      "payable": false,
      "inputs": [],
      "outputs": [
        {
          "type": "uint256",
          "name": ""
        }
      ]
    },
    {
      "type": "function",
      "name": "decimals",
      "constant": true,
      "stateMutability": "view",
      "payable": false,
      "inputs": [],
      "outputs": [
        {
          "type": "uint8",
          "name": ""
        }
      ]
    },
    {
      "type": "function",
      "name": "endpoint",
      "constant": true,
      "stateMutability": "view",
      "payable": false,
      "inputs": [],
      "outputs": [
        {
          "type": "address",
          "name": ""
        }
      ]
    },
    {
      "type": "function",
      "name": "enforcedOptions",
      "constant": true,
      "stateMutability": "view",
      "payable": false,
      "inputs": [
        {
          "type": "uint32",
          "name": "eid"
        },
        {
          "type": "uint16",
          "name": "msgType"
        }
      ],
      "outputs": [
        {
          "type": "bytes",
          "name": "enforcedOption"
        }
      ]
    },
    {
      "type": "function",
      "name": "isComposeMsgSender",
      "constant": true,
      "stateMutability": "view",
      "payable": false,
      "inputs": [
        {
          "type": "tuple",
          "name": "",
          "components": [
            {
              "type": "uint32",
              "name": "srcEid"
            },
            {
              "type": "bytes32",
              "name": "sender"
            },
            {
              "type": "uint64",
              "name": "nonce"
            }
          ]
        },
        {
          "type": "bytes",
          "name": ""
        },
        {
          "type": "address",
          "name": "_sender"
        }
      ],
      "outputs": [
        {
          "type": "bool",
          "name": ""
        }
      ]
    },
    {
      "type": "function",
      "name": "isPeer",
      "constant": true,
      "stateMutability": "view",
      "payable": false,
      "inputs": [
        {
          "type": "uint32",
          "name": "_eid"
        },
        {
          "type": "bytes32",
          "name": "_peer"
        }
      ],
      "outputs": [
        {
          "type": "bool",
          "name": ""
        }
      ]
    },
    {
      "type": "function",
      "name": "localDecimals",
      "constant": true,
      "stateMutability": "view",
      "payable": false,
      "inputs": [],
      "outputs": [
        {
          "type": "uint8",
          "name": ""
        }
      ]
    },
    {
      "type": "function",
      "name": "lzReceive",
      "constant": false,
      "stateMutability": "payable",
      "payable": true,
      "inputs": [
        {
          "type": "tuple",
          "name": "_origin",
          "components": [
            {
              "type": "uint32",
              "name": "srcEid"
            },
            {
              "type": "bytes32",
              "name": "sender"
            },
            {
              "type": "uint64",
              "name": "nonce"
            }
          ]
        },
        {
          "type": "bytes32",
          "name": "_guid"
        },
        {
          "type": "bytes",
          "name": "_message"
        },
        {
          "type": "address",
          "name": "_executor"
        },
        {
          "type": "bytes",
          "name": "_extraData"
        }
      ],
      "outputs": []
    },
    {
      "type": "function",
      "name": "lzReceiveAndRevert",
      "constant": false,
      "stateMutability": "payable",
      "payable": true,
      "inputs": [
        {
          "type": "tuple[]",
          "name": "_packets",
          "components": [
            {
              "type": "tuple",
              "name": "origin",
              "components": [
                {
                  "type": "uint32",
                  "name": "srcEid"
                },
                {
                  "type": "bytes32",
                  "name": "sender"
                },
                {
                  "type": "uint64",
                  "name": "nonce"
                }
              ]
            },
            {
              "type": "uint32",
              "name": "dstEid"
            },
            {
              "type": "address",
              "name": "receiver"
            },
            {
              "type": "bytes32",
              "name": "guid"
            },
            {
              "type": "uint256",
              "name": "value"
            },
            {
              "type": "address",
              "name": "executor"
            },
            {
              "type": "bytes",
              "name": "message"
            },
            {
              "type": "bytes",
              "name": "extraData"
            }
          ]
        }
      ],
      "outputs": []
    },
    {
      "type": "function",
      "name": "lzReceiveSimulate",
      "constant": false,
      "stateMutability": "payable",
      "payable": true,
      "inputs": [
        {
          "type": "tuple",
          "name": "_origin",
          "components": [
            {
              "type": "uint32",
              "name": "srcEid"
            },
            {
              "type": "bytes32",
              "name": "sender"
            },
            {
              "type": "uint64",
              "name": "nonce"
            }
          ]
        },
        {
          "type": "bytes32",
          "name": "_guid"
        },
        {
          "type": "bytes",
          "name": "_message"
        },
        {
          "type": "address",
          "name": "_executor"
        },
        {
          "type": "bytes",
          "name": "_extraData"
        }
      ],
      "outputs": []
    },
    {
      "type": "function",
      "name": "minterBurner",
      "constant": true,
      "stateMutability": "view",
      "payable": false,
      "inputs": [],
      "outputs": [
        {
          "type": "address",
          "name": ""
        }
      ]
    },
    {
      "type": "function",
      "name": "msgInspector",
      "constant": true,
      "stateMutability": "view",
      "payable": false,
      "inputs": [],
      "outputs": [
        {
          "type": "address",
          "name": ""
        }
      ]
    },
    {
      "type": "function",
      "name": "nextNonce",
      "constant": true,
      "stateMutability": "view",
      "payable": false,
      "inputs": [
        {
          "type": "uint32",
          "name": ""
        },
        {
          "type": "bytes32",
          "name": ""
        }
      ],
      "outputs": [
        {
          "type": "uint64",
          "name": "nonce"
        }
      ]
    },
    {
      "type": "function",
      "name": "oApp",
      "constant": true,
      "stateMutability": "view",
      "payable": false,
      "inputs": [],
      "outputs": [
        {
          "type": "address",
          "name": ""
        }
      ]
    },
    {
      "type": "function",
      "name": "oAppVersion",
      "constant": true,
      "stateMutability": "pure",
      "payable": false,
      "inputs": [],
      "outputs": [
        {
          "type": "uint64",
          "name": "senderVersion"
        },
        {
          "type": "uint64",
          "name": "receiverVersion"
        }
      ]
    },
    {
      "type": "function",
      "name": "oftVersion",
      "constant": true,
      "stateMutability": "pure",
      "payable": false,
      "inputs": [],
      "outputs": [
        {
          "type": "bytes4",
          "name": "interfaceId"
        },
        {
          "type": "uint64",
          "name": "version"
        }
      ]
    },
    {
      "type": "function",
      "name": "owner",
      "constant": true,
      "stateMutability": "view",
      "payable": false,
      "inputs": [],
      "outputs": [
        {
          "type": "address",
          "name": ""
        }
      ]
    },
    {
      "type": "function",
      "name": "peers",
      "constant": true,
      "stateMutability": "view",
      "payable": false,
      "inputs": [
        {
          "type": "uint32",
          "name": "eid"
        }
      ],
      "outputs": [
        {
          "type": "bytes32",
          "name": "peer"
        }
      ]
    },
    {
      "type": "function",
      "name": "preCrime",
      "constant": true,
      "stateMutability": "view",
      "payable": false,
      "inputs": [],
      "outputs": [
        {
          "type": "address",
          "name": ""
        }
      ]
    },
    {
      "type": "function",
      "name": "quoteOFT",
      "constant": true,
      "stateMutability": "view",
      "payable": false,
      "inputs": [
        {
          "type": "tuple",
          "name": "_sendParam",
          "components": [
            {
              "type": "uint32",
              "name": "dstEid"
            },
            {
              "type": "bytes32",
              "name": "to"
            },
            {
              "type": "uint256",
              "name": "amountLD"
            },
            {
              "type": "uint256",
              "name": "minAmountLD"
            },
            {
              "type": "bytes",
              "name": "extraOptions"
            },
            {
              "type": "bytes",
              "name": "composeMsg"
            },
            {
              "type": "bytes",
              "name": "oftCmd"
            }
          ]
        }
      ],
      "outputs": [
        {
          "type": "tuple",
          "name": "oftLimit",
          "components": [
            {
              "type": "uint256",
              "name": "minAmountLD"
            },
            {
              "type": "uint256",
              "name": "maxAmountLD"
            }
          ]
        },
        {
          "type": "tuple[]",
          "name": "oftFeeDetails",
          "components": [
            {
              "type": "int256",
              "name": "feeAmountLD"
            },
            {
              "type": "string",
              "name": "description"
            }
          ]
        },
        {
          "type": "tuple",
          "name": "oftReceipt",
          "components": [
            {
              "type": "uint256",
              "name": "amountSentLD"
            },
            {
              "type": "uint256",
              "name": "amountReceivedLD"
            }
          ]
        }
      ]
    },
    {
      "type": "function",
      "name": "quoteSend",
      "constant": true,
      "stateMutability": "view",
      "payable": false,
      "inputs": [
        {
          "type": "tuple",
          "name": "_sendParam",
          "components": [
            {
              "type": "uint32",
              "name": "dstEid"
            },
            {
              "type": "bytes32",
              "name": "to"
            },
            {
              "type": "uint256",
              "name": "amountLD"
            },
            {
              "type": "uint256",
              "name": "minAmountLD"
            },
            {
              "type": "bytes",
              "name": "extraOptions"
            },
            {
              "type": "bytes",
              "name": "composeMsg"
            },
            {
              "type": "bytes",
              "name": "oftCmd"
            }
          ]
        },
        {
          "type": "bool",
          "name": "_payInLzToken"
        }
      ],
      "outputs": [
        {
          "type": "tuple",
          "name": "msgFee",
          "components": [
            {
              "type": "uint256",
              "name": "nativeFee"
            },
            {
              "type": "uint256",
              "name": "lzTokenFee"
            }
          ]
        }
      ]
    },
    {
      "type": "function",
      "name": "renounceOwnership",
      "constant": false,
      "payable": false,
      "inputs": [],
      "outputs": []
    },
    {
      "type": "function",
      "name": "send",
      "constant": false,
      "stateMutability": "payable",
      "payable": true,
      "inputs": [
        {
          "type": "tuple",
          "name": "_sendParam",
          "components": [
            {
              "type": "uint32",
              "name": "dstEid"
            },
            {
              "type": "bytes32",
              "name": "to"
            },
            {
              "type": "uint256",
              "name": "amountLD"
            },
            {
              "type": "uint256",
              "name": "minAmountLD"
            },
            {
              "type": "bytes",
              "name": "extraOptions"
            },
            {
              "type": "bytes",
              "name": "composeMsg"
            },
            {
              "type": "bytes",
              "name": "oftCmd"
            }
          ]
        },
        {
          "type": "tuple",
          "name": "_fee",
          "components": [
            {
              "type": "uint256",
              "name": "nativeFee"
            },
            {
              "type": "uint256",
              "name": "lzTokenFee"
            }
          ]
        },
        {
          "type": "address",
          "name": "_refundAddress"
        }
      ],
      "outputs": [
        {
          "type": "tuple",
          "name": "msgReceipt",
          "components": [
            {
              "type": "bytes32",
              "name": "guid"
            },
            {
              "type": "uint64",
              "name": "nonce"
            },
            {
              "type": "tuple",
              "name": "fee",
              "components": [
                {
                  "type": "uint256",
                  "name": "nativeFee"
                },
                {
                  "type": "uint256",
                  "name": "lzTokenFee"
                }
              ]
            }
          ]
        },
        {
          "type": "tuple",
          "name": "oftReceipt",
          "components": [
            {
              "type": "uint256",
              "name": "amountSentLD"
            },
            {
              "type": "uint256",
              "name": "amountReceivedLD"
            }
          ]
        }
      ]
    },
    {
      "type": "function",
      "name": "setDelegate",
      "constant": false,
      "payable": false,
      "inputs": [
        {
          "type": "address",
          "name": "_delegate"
        }
      ],
      "outputs": []
    },
    {
      "type": "function",
      "name": "setEnforcedOptions",
      "constant": false,
      "payable": false,
      "inputs": [
        {
          "type": "tuple[]",
          "name": "_enforcedOptions",
          "components": [
            {
              "type": "uint32",
              "name": "eid"
            },
            {
              "type": "uint16",
              "name": "msgType"
            },
            {
              "type": "bytes",
              "name": "options"
            }
          ]
        }
      ],
      "outputs": []
    },
    {
      "type": "function",
      "name": "setMsgInspector",
      "constant": false,
      "payable": false,
      "inputs": [
        {
          "type": "address",
          "name": "_msgInspector"
        }
      ],
      "outputs": []
    },
    {
      "type": "function",
      "name": "setPeer",
      "constant": false,
      "payable": false,
      "inputs": [
        {
          "type": "uint32",
          "name": "_eid"
        },
        {
          "type": "bytes32",
          "name": "_peer"
        }
      ],
      "outputs": []
    },
    {
      "type": "function",
      "name": "setPreCrime",
      "constant": false,
      "payable": false,
      "inputs": [
        {
          "type": "address",
          "name": "_preCrime"
        }
      ],
      "outputs": []
    },
    {
      "type": "function",
      "name": "sharedDecimals",
      "constant": true,
      "stateMutability": "view",
      "payable": false,
      "inputs": [],
      "outputs": [
        {
          "type": "uint8",
          "name": ""
        }
      ]
    },
    {
      "type": "function",
      "name": "token",
      "constant": true,
      "stateMutability": "view",
      "payable": false,
      "inputs": [],
      "outputs": [
        {
          "type": "address",
          "name": ""
        }
      ]
    },
    {
      "type": "function",
      "name": "transferOwnership",
      "constant": false,
      "payable": false,
      "inputs": [
        {
          "type": "address",
          "name": "newOwner"
        }
      ],
      "outputs": []
    },
    {
      "type": "function",
      "name": "yusdToken",
      "constant": true,
      "stateMutability": "view",
      "payable": false,
      "inputs": [],
      "outputs": [
        {
          "type": "address",
          "name": ""
        }
      ]
    }
  ],
  "transactionHash": "0x0a72eade07cf4ad1267b94e15edc118243479299b7424885548875401116791e",
  "args": [
    "0x0847841d8829C685F6fdA9078658723e844552E5",
    "0x392Aab1b27cef93F217436df26f2dbae2647307f",
    "0x6EDCE65403992e310A62460808c4b910D972f10f",
    "0x7E95D72996E7a0b1D95561F9DFA26E11a80cf8f4"
  ],
  "numDeployments": 1,
  "solcInputHash": "",
  "bytecode": "0x610100806040523461029d57600090608081612a27803803809161002382856102a2565b83398101031261029957610036816102db565b602082015192906001600160a01b038416840361029957610065606061005e604086016102db565b94016102db565b60405163313ce56760e01b81526001600160a01b039092169390602083600481885afa92831561028e57849361024c575b506001600160a01b031680156102385783546001600160a01b0319811682178555604051929082906001600160a01b03167f8be0079c531659141344cd1fd0a4f28419497f9722a3daafe3b4186f6b6457e08780a36001600160a01b0316608081905290813b1561023457602483868094829463ca5eb5e160e01b845260048401525af1801561022957610214575b5060ff1660068110610205576005190160ff81116101f15760ff1690604d82116101dd5750600a0a60a05260c05260e05260405161273790816102f082396080518181816105bf015281816106df01528181610b0401528181610e7a01528181611616015281816124db015261257d015260a051818181610a540152818161105401528181611c3901528181611d670152612256015260c051816117d7015260e051818181610861015281816114ec01526122c10152f35b634e487b7160e01b81526011600452602490fd5b634e487b7160e01b82526011600452602482fd5b6301e9714b60e41b8252600482fd5b916102228160ff93946102a2565b9190610125565b6040513d85823e3d90fd5b8480fd5b631e4fbdf760e01b84526004849052602484fd5b9092506020813d602011610286575b81610268602093836102a2565b81010312610282575160ff81168103610282579138610096565b8380fd5b3d915061025b565b6040513d86823e3d90fd5b5080fd5b600080fd5b601f909101601f19168101906001600160401b038211908210176102c557604052565b634e487b7160e01b600052604160045260246000fd5b51906001600160a01b038216820361029d5756fe6080604052600436101561001257600080fd5b60003560e01c80630d35b41514610262578063111ecdad1461025d57806313137d6514610258578063134d4f2514610253578063156a0d0f1461024e57806317442b70146102495780631f5e1334146102445780632ef8c5a41461023f578063313ce567146101c25780633400288b1461023a5780633b6f743b1461023557806352ae2879146102305780635535d4611461022b578063568bcbb2146102265780635a0dfe4d146102215780635e280f111461021c5780636fc1b31e14610217578063715018a6146102125780637d25a05e1461020d57806382413eac14610208578063857749b0146102035780638da5cb5b146101fe578063963efcaa146101f95780639f68b964146101f4578063b731ea0a146101ef578063b98bd070146101ea578063bb0b6a53146101e5578063bc70b354146101e0578063bd815db0146101db578063c7c7f5b3146101d6578063ca5eb5e1146101d1578063d045a0dc146101cc578063d4243885146101c7578063e46e7058146101c2578063f2fde38b146101bd578063fc0c546a146101b85763ff7bd03d146101b357600080fd5b611806565b6117c1565b611734565b610890565b6116c4565b611691565b6115ec565b611437565b61128a565b611236565b6111fb565b611116565b611093565b611077565b61103c565b611013565b610ff7565b610f99565b610f72565b610f19565b610ea9565b610e64565b610e1c565b610db1565b610d43565b610ba6565b6109f0565b61095f565b61084b565b61082f565b61080d565b6107e6565b6107ca565b6105ac565b6104c4565b610363565b908160e09103126102755790565b600080fd5b60005b83811061028d5750506000910152565b818101518382015260200161027d565b906020916102b68151809281855285808601910161027a565b601f01601f1916010190565b939291906102de8560a081019260208091805184520151910152565b60a06040860152815180915260c0850190602060c08260051b8801019301916000905b82821061032757505050509060606103259294019060208091805184520151910152565b565b9091929360208061035560019360bf198c82030186526040838a51805184520151918185820152019061029d565b960192019201909291610301565b34610275576020366003190112610275576004356001600160401b03811161027557610393903690600401610267565b61039b61186b565b506103a461186b565b50604051637e062a3560e11b8152602081600481305afa9081156104875760049160209160009161048c575b506040516318160ddd60e01b815292839182906001600160a01b03165afa90811561048757600091610458575b5061040661184d565b9060008252602082015261045461043861041e6118cb565b936040810135610432606083013592611913565b50611c30565b61044061184d565b9182526020820152604051938493846102c2565b0390f35b61047a915060203d602011610480575b6104728183610c6c565b8101906118a5565b386103fd565b503d610468565b611899565b6104ac9150823d84116104b2575b6104a48183610c6c565b810190611884565b386103d0565b503d61049a565b600091031261027557565b34610275576000366003190112610275576004546040516001600160a01b039091168152602090f35b606090600319011261027557600490565b9181601f84011215610275578235916001600160401b038311610275576020838186019501011161027557565b6001600160a01b0381160361027557565b600319810160e08112610275576060600091126105a9575060049182606435926084356001600160401b03811161027557816105799184016104fe565b9390939260a4356105898161052b565b9260c4356001600160401b038111610275576105a592016104fe565b9091565b80fd5b6105b53661053c565b50919492915050337f00000000000000000000000000000000000000000000000000000000000000006001600160a01b0316036107b55781356105f781610951565b61060081611c84565b90602084013580920361078e57505061062861061c8583612226565b6001600160a01b031690565b9361064e61063e6106398385612232565b612248565b61064785611913565b508661227c565b916106598260281090565b6106b1575b505061068a7fefed6d3500546b29533b128a29e3a94d70788727f0507505ac12eaf2e578fd9c92611913565b6040805163ffffffff92909216825260208201929092526001600160a01b039490941693a3005b90826106dc926106d66106c660408801611cb8565b936106d088611913565b9261231e565b92612341565b917f00000000000000000000000000000000000000000000000000000000000000006001600160a01b0316803b1561027557604051633e5ac80960e11b8152936000918591829084908290610736908b8d60048501611cc2565b03925af1908115610487577fefed6d3500546b29533b128a29e3a94d70788727f0507505ac12eaf2e578fd9c9361068a92610773575b509261065e565b80610782600061078893610c6c565b806104b9565b3861076c565b8061079d63ffffffff92610951565b63309afaf360e21b6000521660045260245260446000fd5b6391ac5e4f60e01b6000523360045260246000fd5b3461027557600036600319011261027557602060405160028152f35b34610275576000366003190112610275576040805162b9270b60e21b815260016020820152f35b3461027557600036600319011261027557604080516001815260026020820152f35b3461027557600036600319011261027557602060405160018152f35b34610275576000366003190112610275576040517f00000000000000000000000000000000000000000000000000000000000000006001600160a01b03168152602090f35b3461027557600036600319011261027557604051637e062a3560e11b8152602081600481305afa90811561048757600491602091600091610934575b5060405163313ce56760e01b815292839182906001600160a01b03165afa801561048757602091600091610907575b5060ff60405191168152f35b6109279150823d841161092d575b61091f8183610c6c565b81019061191d565b386108fb565b503d610915565b61094b9150823d84116104b2576104a48183610c6c565b386108cc565b63ffffffff81160361027557565b34610275576040366003190112610275577f238399d427b947898edb290f5ff0f9109849b1c3ba196a42e35f00c50a54b98b60043561099d81610951565b602435906109a9611ced565b63ffffffff81166000526001602052816040600020556109e1604051928392836020909392919363ffffffff60408201951681520152565b0390a1005b8015150361027557565b34610275576040366003190112610275576004356001600160401b03811161027557610a20903690600401610267565b602435610a2c816109e6565b610a3461186b565b50813591606081013590610a7f6040820135610a4f86610951565b610a7a7f000000000000000000000000000000000000000000000000000000000000000080926121dd565b6121fd565b91808310610b8e57610b00604086610ae587610a9b8888611d50565b90610aa585610951565b610aad61186b565b50610ab785611c84565b610ace610ac261185c565b63ffffffff9097168752565b602086015285850152606084015215156080830152565b815180938192631bb8518b60e31b8352309060048401611e8c565b03817f00000000000000000000000000000000000000000000000000000000000000006001600160a01b03165afa80156104875761045491600091610b5f575b5060405191829182815181526020918201519181019190915260400190565b610b81915060403d604011610b87575b610b798183610c6c565b810190611e78565b82610b40565b503d610b6f565b826371c4efed60e01b60005260045260245260446000fd5b34610275576000366003190112610275576020604051308152f35b6024359061ffff8216820361027557565b359061ffff8216820361027557565b90600182811c92168015610c11575b6020831014610bfb57565b634e487b7160e01b600052602260045260246000fd5b91607f1691610bf0565b634e487b7160e01b600052604160045260246000fd5b606081019081106001600160401b03821117610c4c57604052565b610c1b565b604081019081106001600160401b03821117610c4c57604052565b90601f801991011681019081106001600160401b03821117610c4c57604052565b9060405191826000825492610ca184610be1565b8084529360018116908115610d0d5750600114610cc6575b5061032592500383610c6c565b90506000929192526020600020906000915b818310610cf15750509060206103259282010138610cb9565b6020919350806001915483858901015201910190918492610cd8565b90506020925061032594915060ff191682840152151560051b82010138610cb9565b906020610d4092818152019061029d565b90565b3461027557604036600319011261027557610454610d9d610d98600435610d6981610951565b63ffffffff610d76610bc1565b9116600052600360205260406000209061ffff16600052602052604060002090565b610c8d565b60405191829160208352602083019061029d565b3461027557600036600319011261027557604051637e062a3560e11b8152602081600481305afa90811561048757600091610dfd575b506040516001600160a01b039091168152602090f35b610e16915060203d6020116104b2576104a48183610c6c565b38610de7565b34610275576040366003190112610275576020610e5a600435610e3e81610951565b6024359063ffffffff1660005260016020526040600020541490565b6040519015158152f35b34610275576000366003190112610275576040517f00000000000000000000000000000000000000000000000000000000000000006001600160a01b03168152602090f35b34610275576020366003190112610275577ff0be4f1e87349231d80c36b33f9e8639658eeaf474014dee15a3e6a4d44141976020600435610ee98161052b565b610ef1611ced565b600480546001600160a01b0319166001600160a01b03929092169182179055604051908152a1005b3461027557600036600319011261027557610f32611ced565b600080546001600160a01b0319811682556001600160a01b03167f8be0079c531659141344cd1fd0a4f28419497f9722a3daafe3b4186f6b6457e08280a3005b3461027557604036600319011261027557610f8e600435610951565b602060405160008152f35b346102755760a036600319011261027557610fb3366104ed565b506064356001600160401b03811161027557610fd39036906004016104fe565b50506020608435610fe38161052b565b6040516001600160a01b0390911630148152f35b3461027557600036600319011261027557602060405160068152f35b34610275576000366003190112610275576000546040516001600160a01b039091168152602090f35b346102755760003660031901126102755760206040517f00000000000000000000000000000000000000000000000000000000000000008152f35b3461027557600036600319011261027557602060405160008152f35b34610275576000366003190112610275576002546040516001600160a01b039091168152602090f35b906020600319830112610275576004356001600160401b0381116102755760040160009280601f83011215611112578135936001600160401b0385116105a957506020808301928560051b010111610275579190565b8380fd5b3461027557611124366110bc565b9061112d611ced565b611136826118b4565b906111446040519283610c6c565b828252602082019260051b8101903682116102755780935b82851061116e5761116c846120b6565b005b84356001600160401b03811161027557820190606082360312610275576040519161119883610c31565b80356111a381610951565b83526111b160208201610bd2565b60208401526040810135906001600160401b03821161027557019036601f83011215610275576020926111eb849336908581359101611951565b604082015281520194019361115c565b346102755760203660031901126102755763ffffffff60043561121d81610951565b1660005260016020526020604060002054604051908152f35b346102755760603660031901126102755760043561125381610951565b61125b610bc1565b604435906001600160401b0382116102755761045492611282610d9d9336906004016104fe565b9290916119f7565b611293366110bc565b60005b81811061130657604051638e9e709960e01b8152600081600481335afa8015610487576112df916000916112e3575b50604051638351eea760e01b815291829160048301610d2f565b0390fd5b61130091503d806000833e6112f88183610c6c565b810190611baa565b826112c5565b611311818385611abb565b9061134361133f61132184611913565b60208501359063ffffffff1660005260016020526040600020541490565b1590565b6113dd5760c08201359160a0810135611360610100830183611ae3565b94909161136f60e08501611b15565b9361137e610120820182611ae3565b959095303b15610275576000966113ac926040519a8b9889978897633411683760e21b895260048901611b30565b0391305af1918215610487576001926113c8575b505b01611296565b8061078260006113d793610c6c565b386113c0565b600191506113c2565b916080610325929493611426604060c0830197805184526001600160401b0360208201511660208501520151604083019060208091805184520151910152565b019060208091805184520151910152565b6080366003190112610275576004356001600160401b03811161027557611462903690600401610267565b60403660231901126102755760643561147a8161052b565b611482611c08565b5061148b61186b565b50611494611c08565b5061149d61186b565b506060820135906114b66040840135610a4f8535610951565b91808310610b8e5750604051632770a7eb60e21b8152336004820152602481018390529060208260448160006001600160a01b037f0000000000000000000000000000000000000000000000000000000000000000165af191821561048757611542926115bd575b506115298385611d50565b61153286611913565b9161153c366121b5565b9261245e565b9061154b61184d565b928184528160208501527f85496b760a4b7f8d66384b9df21b381f5d1b1e79f229a47aaf4c232edc2fe59a6115ab611584855193611913565b936040519181839233978460409194939263ffffffff606083019616825260208201520152565b0390a3610454604051928392836113e6565b6115de9060203d6020116115e5575b6115d68183610c6c565b810190611d16565b503861151e565b503d6115cc565b3461027557600060203660031901126105a9578060043561160c8161052b565b611614611ced565b7f00000000000000000000000000000000000000000000000000000000000000006001600160a01b0316803b1561168d5760405163ca5eb5e160e01b81526001600160a01b0390921660048301529091908290602490829084905af1801561048757829061167f5780f35b61168891610c6c565b388180f35b5050fd5b61169a3661053c565b50505092903033036116b35761062861061c8583612226565b63029a949d60e31b60005260046000fd5b34610275576020366003190112610275577fd48d879cef83a1c0bdda516f27b13ddb1b3f8bbac1c9e1511bb2a659c242776060206004356117048161052b565b61170c611ced565b600280546001600160a01b0319166001600160a01b03929092169182179055604051908152a1005b34610275576020366003190112610275576004356117518161052b565b611759611ced565b6001600160a01b031680156117ab57600080546001600160a01b03198116831782556001600160a01b0316907f8be0079c531659141344cd1fd0a4f28419497f9722a3daafe3b4186f6b6457e09080a3005b631e4fbdf760e01b600052600060045260246000fd5b34610275576000366003190112610275576040517f00000000000000000000000000000000000000000000000000000000000000006001600160a01b03168152602090f35b34610275576060366003190112610275576020611822366104ed565b63ffffffff813561183281610951565b16600052600182528160406000205491013560405191148152f35b60405190610325604083610c6c565b6040519061032560a083610c6c565b6040519061187882610c51565b60006020838281520152565b908160209103126102755751610d408161052b565b6040513d6000823e3d90fd5b90816020910312610275575190565b6001600160401b038111610c4c5760051b60200190565b604051906118da602083610c6c565b600080835282815b8281106118ee57505050565b6020906040516118fd81610c51565b60008152606083820152828285010152016118e2565b35610d4081610951565b90816020910312610275575160ff811681036102755790565b6001600160401b038111610c4c57601f01601f191660200190565b92919261195d82611936565b9161196b6040519384610c6c565b829481845281830111610275578281602093846000960137010152565b6020836103259395949560405196846119aa899651809287808a01910161027a565b8501918483013701016000815203601f198101845283610c6c565b908060209392818452848401376000828201840152601f01601f1916010190565b916020610d409381815201916119c5565b611a299163ffffffff610d98929694959616600052600360205260406000209061ffff16600052602052604060002090565b805115611a97578315611a91576002841015611a5d5750506112df604051928392639a6d49cd60e01b8452600484016119e6565b909192611a73611a6e368387611951565b61217d565b6000816002116105a957506002610d40939401906001190191611988565b92509050565b509190610d40913691611951565b634e487b7160e01b600052603260045260246000fd5b9190811015611ade5760051b8101359061013e1981360301821215610275570190565b611aa5565b903590601e198136030182121561027557018035906001600160401b0382116102755760200191813603831361027557565b35610d408161052b565b6001600160401b0381160361027557565b929093611b8c926001600160401b036040610d409a98999763ffffffff8135611b5881610951565b168852602081013560208901520135611b7081611b1f565b166040860152606085015260e0608085015260e08401916119c5565b6001600160a01b0390941660a082015280840360c0909101526119c5565b602081830312610275578051906001600160401b038211610275570181601f82011215610275578051611bdc81611936565b92611bea6040519485610c6c565b8184526020828401011161027557610d40916020808501910161027a565b60405190611c1582610c31565b8160008152600060208201526040611c2b61186b565b910152565b611c5f90610a7a7f000000000000000000000000000000000000000000000000000000000000000080926121dd565b918291808410611c6c5750565b836371c4efed60e01b60005260045260245260446000fd5b63ffffffff16806000526001602052604060002054908115611ca4575090565b63f6ff4fb760e01b60005260045260246000fd5b35610d4081611b1f565b610d40939260809260018060a01b03168252602082015260006040820152816060820152019061029d565b6000546001600160a01b03163303611d0157565b63118cdaa760e01b6000523360045260246000fd5b908160209103126102755751610d40816109e6565b9091611d42610d409360408452604084019061029d565b91602081840391015261029d565b9091611db5611ddc93611d98611d8c6020860135927f0000000000000000000000000000000000000000000000000000000000000000906121dd565b6001600160401b031690565b611daf611da860a0870187611ae3565b3691611951565b9161239f565b9390928394600014611e48576002905b611282611dd182611913565b916080810190611ae3565b60045490926001600160a01b03909116908382611df857505050565b60405163043a78eb60e01b815292602092849283918291611e1c9160048401611d2b565b03915afa801561048757611e2d5750565b611e459060203d6020116115e5576115d68183610c6c565b50565b600190611dc5565b919082604091031261027557604051611e6881610c51565b6020808294805184520151910152565b9060408282031261027557610d4091611e50565b906020909392936040835263ffffffff81511660408401528181015160608401526080611ee0611eca604084015160a08488015260e087019061029d565b6060840151868203603f190160a088015261029d565b910151151560c08401526001600160a01b03909416910152565b8051821015611ade5760209160051b010190565b601f8211611f1b57505050565b6000526020600020906020601f840160051c83019310611f56575b601f0160051c01905b818110611f4a575050565b60008155600101611f3f565b9091508190611f36565b91909182516001600160401b038111610c4c57611f8781611f818454610be1565b84611f0e565b6020601f8211600114611fc8578190611fb9939495600092611fbd575b50508160011b916000199060031b1c19161790565b9055565b015190503880611fa4565b601f19821690611fdd84600052602060002090565b9160005b81811061201957509583600195969710612000575b505050811b019055565b015160001960f88460031b161c19169055388080611ff6565b9192602060018192868b015181550194019201611fe1565b602081016020825282518091526040820191602060408360051b8301019401926000915b83831061206457505050505090565b90919293946020806120a7600193603f19868203018752606060408b5163ffffffff815116845261ffff868201511686850152015191816040820152019061029d565b97019301930191939290612055565b60005b815181101561214657806120dc60406120d460019486611efa565b51015161217d565b61214060406120eb8386611efa565b51015163ffffffff6120fd8487611efa565b515116600052600360205261213b6040600020612129602061211f878a611efa565b51015161ffff1690565b61ffff16600052602052604060002090565b611f60565b016120b9565b506121787fbe4864a8e820971c0247f5992e2da559595f7bf076a21cb5928d443d2a13b6749160405191829182612031565b0390a1565b600361ffff600283015116036121905750565b604051639a6d49cd60e01b8152602060048201529081906112df90602483019061029d565b604090602319011261027557604051906121ce82610c51565b60243582526044356020830152565b81156121e7570490565b634e487b7160e01b600052601260045260246000fd5b8181029291811591840414171561221057565b634e487b7160e01b600052601160045260246000fd5b90602011610275573590565b906000906028116105a957506020013560c01c90565b610d40906001600160401b037f000000000000000000000000000000000000000000000000000000000000000091166121fd565b81906001600160a01b03811615612315575b6040516340c10f1960e01b81526001600160a01b03909116600482015260248101919091526020818060448101038160007f00000000000000000000000000000000000000000000000000000000000000006001600160a01b03165af18015610487576122f9575090565b6123119060203d6020116115e5576115d68183610c6c565b5090565b5061dead61228e565b91906000928160281161111257919250610d409136916027190190602801611951565b604c9193610d40936040519586936001600160401b0360c01b9060c01b16602085015263ffffffff60e01b9060e01b166028840152602c83015261238e815180926020868601910161027a565b81010301601f198101835282610c6c565b825115801593906123ed576123ea9160689160405194859260208401526001600160401b0360c01b9060c01b16604083015233604883015261238e815180926020868601910161027a565b91565b50906040519160208301526001600160401b0360c01b9060c01b166040820152602881526123ea604882610c6c565b906080828203126102755761245690604080519361243985610c31565b80518552602081015161244b81611b1f565b602086015201611e50565b604082015290565b6124bb608094926124d79694612472611c08565b50602061247f865161254f565b950191825180612540575b5061249485611c84565b92511515926124a4610ac261185c565b602086015260408501526060840152151585830152565b6040518095819482936302637a4560e41b845260048401611e8c565b03917f00000000000000000000000000000000000000000000000000000000000000006001600160a01b03165af190811561048757600091612517575090565b610d40915060803d608011612539575b6125318183610c6c565b81019061241c565b503d612527565b6125499061256e565b3861248a565b8034036125595790565b6304fb820960e51b6000523460045260246000fd5b60405163393f876560e21b81527f00000000000000000000000000000000000000000000000000000000000000006001600160a01b03169190602081600481865afa908115610487576000916126aa575b506001600160a01b03169182156126995760008091612640936040519060208201926323b872dd60e01b8452336024840152604483015260648201526064815261260a608482610c6c565b519082865af13d15612691573d9061262182611936565b9161262f6040519384610c6c565b82523d6000602084013e5b836126c9565b8051908115159182612673575b50506126565750565b635274afe760e01b6000526001600160a01b031660045260246000fd5b61268a92509060208061133f938301019101611d16565b388061264d565b60609061263a565b6329b99a9560e11b60005260046000fd5b6126c3915060203d6020116104b2576104a48183610c6c565b386125bf565b906126ef57508051156126de57805190602001fd5b630a12f52160e11b60005260046000fd5b81511580612721575b612700575090565b639996b31560e01b60009081526001600160a01b0391909116600452602490fd5b50803b156126f856fea164736f6c634300081a000a",
  "libraries": {},
  "facets": [],
  "diamondCut": [],
  "execute": {},
  "history": [],
  "implementation": null,
  "devdoc": {},
  "userdoc": {},
  "storageLayout": {},
  "gasEstimates": {}
}