{
  "address": "0x347009174F9dBED8b5f41803305A37b56A65fAB8",
  "abi": [
    {
      "type": "constructor",
      "stateMutability": "undefined",
      "payable": false,
      "inputs": [
        {
          "type": "address",
          "name": "_token"
        },
        {
          "type": "address",
          "name": "_owner"
        }
      ]
    },
    {
      "type": "error",
      "name": "OwnableInvalidOwner",
      "inputs": [
        {
          "type": "address",
          "name": "owner"
        }
      ]
    },
    {
      "type": "error",
      "name": "OwnableUnauthorizedAccount",
      "inputs": [
        {
          "type": "address",
          "name": "account"
        }
      ]
    },
    {
      "type": "event",
      "anonymous": false,
      "name": "OwnershipTransferred",
      "inputs": [
        {
          "type": "address",
          "name": "previousOwner",
          "indexed": true
        },
        {
          "type": "address",
          "name": "newOwner",
          "indexed": true
        }
      ]
    },
    {
      "type": "function",
      "name": "burn",
      "constant": false,
      "payable": false,
      "inputs": [
        {
          "type": "address",
          "name": "_from"
        },
        {
          "type": "uint256",
          "name": "_amount"
        }
      ],
      "outputs": [
        {
          "type": "bool",
          "name": ""
        }
      ]
    },
    {
      "type": "function",
      "name": "mint",
      "constant": false,
      "payable": false,
      "inputs": [
        {
          "type": "address",
          "name": "_to"
        },
        {
          "type": "uint256",
          "name": "_amount"
        }
      ],
      "outputs": [
        {
          "type": "bool",
          "name": ""
        }
      ]
    },
    {
      "type": "function",
      "name": "operators",
      "constant": true,
      "stateMutability": "view",
      "payable": false,
      "inputs": [
        {
          "type": "address",
          "name": ""
        }
      ],
      "outputs": [
        {
          "type": "bool",
          "name": ""
        }
      ]
    },
    {
      "type": "function",
      "name": "owner",
      "constant": true,
      "stateMutability": "view",
      "payable": false,
      "inputs": [],
      "outputs": [
        {
          "type": "address",
          "name": ""
        }
      ]
    },
    {
      "type": "function",
      "name": "renounceOwnership",
      "constant": false,
      "payable": false,
      "inputs": [],
      "outputs": []
    },
    {
      "type": "function",
      "name": "setOperator",
      "constant": false,
      "payable": false,
      "inputs": [
        {
          "type": "address",
          "name": "_operator"
        },
        {
          "type": "bool",
          "name": "_status"
        }
      ],
      "outputs": []
    },
    {
      "type": "function",
      "name": "token",
      "constant": true,
      "stateMutability": "view",
      "payable": false,
      "inputs": [],
      "outputs": [
        {
          "type": "address",
          "name": ""
        }
      ]
    },
    {
      "type": "function",
      "name": "transferOwnership",
      "constant": false,
      "payable": false,
      "inputs": [
        {
          "type": "address",
          "name": "newOwner"
        }
      ],
      "outputs": []
    }
  ],
  "transactionHash": "0xa669db87ed3d1ecbd7ca95f1afdab94227f5a3da2426a4ec4c48790530ac6559",
  "args": [
    "0xB44F3f33e43CDd06C634F9955B442e79D7D463B4",
    "0x7E95D72996E7a0b1D95561F9DFA26E11a80cf8f4"
  ],
  "numDeployments": 1,
  "solcInputHash": "",
  "bytecode": "0x60a0346100f057601f6105f538819003918201601f19168301916001600160401b038311848410176100f55780849260409485528339810103126100f0578051906001600160a01b03821682036100f057602001516001600160a01b03811691908290036100f05781156100da57600080546001600160a01b031981168417825560405193916001600160a01b03909116907f8be0079c531659141344cd1fd0a4f28419497f9722a3daafe3b4186f6b6457e09080a36080526104e9908161010c8239608051818181608e0152818161018301526103480152f35b631e4fbdf760e01b600052600060045260246000fd5b600080fd5b634e487b7160e01b600052604160045260246000fdfe608080604052600436101561001357600080fd5b600090813560e01c90816313e7c9d8146103e35750806340c10f191461030b578063558a7297146102b4578063715018a61461025a5780638da5cb5b146102335780639dc29fac14610146578063f2fde38b146100c05763fc0c546a1461007957600080fd5b346100bd57806003193601126100bd576040517f00000000000000000000000000000000000000000000000000000000000000006001600160a01b03168152602090f35b80fd5b50346100bd5760203660031901126100bd576100da610423565b6100e26104b3565b6001600160a01b031680156101325781546001600160a01b03198116821783556001600160a01b03167f8be0079c531659141344cd1fd0a4f28419497f9722a3daafe3b4186f6b6457e08380a380f35b631e4fbdf760e01b82526004829052602482fd5b50346100bd5760403660031901126100bd5780610161610423565b338252600160205260ff6040832054168015610220575b6101819061043e565b7f00000000000000000000000000000000000000000000000000000000000000006001600160a01b031690813b1561021c5760405163079cc67960e41b81526001600160a01b03919091166004820152602480359082015291908290604490829084905af18015610211576101fc575b602060405160018152f35b61020782809261047b565b6100bd57806101f1565b6040513d84823e3d90fd5b5050fd5b5081546001600160a01b03163314610178565b50346100bd57806003193601126100bd57546040516001600160a01b039091168152602090f35b50346100bd57806003193601126100bd576102736104b3565b80546001600160a01b03198116825581906001600160a01b03167f8be0079c531659141344cd1fd0a4f28419497f9722a3daafe3b4186f6b6457e08280a380f35b50346100bd5760403660031901126100bd576102ce610423565b60243590811515809203610307576102e46104b3565b60018060a01b031682526001602052604082209060ff8019835416911617905580f35b8280fd5b50346100bd5760403660031901126100bd5780610326610423565b338252600160205260ff60408320541680156103d0575b6103469061043e565b7f00000000000000000000000000000000000000000000000000000000000000006001600160a01b031690813b1561021c576040516340c10f1960e01b81526001600160a01b03919091166004820152602480359082015291908290604490829084905af18015610211576103c057602060405160018152f35b816103ca9161047b565b386101f1565b5081546001600160a01b0316331461033d565b90503461041f57602036600319011261041f5760209160ff906040906001600160a01b0361040f610423565b1681526001855220541615158152f35b5080fd5b600435906001600160a01b038216820361043957565b600080fd5b1561044557565b60405162461bcd60e51b815260206004820152600e60248201526d139bdd08185d5d1a1bdc9a5e995960921b6044820152606490fd5b90601f8019910116810190811067ffffffffffffffff82111761049d57604052565b634e487b7160e01b600052604160045260246000fd5b6000546001600160a01b031633036104c757565b63118cdaa760e01b6000523360045260246000fdfea164736f6c634300081a000a",
  "libraries": {},
  "facets": [],
  "diamondCut": [],
  "execute": {},
  "history": [],
  "implementation": null,
  "devdoc": {},
  "userdoc": {},
  "storageLayout": {},
  "gasEstimates": {}
}